:020000000B28CB
:10000800CE00030E83128E000A088F00AC280C283D
:100018001A219A0097019801990183015E28831299
:1000280092003C2809309100D7309000900B1A2894
:10003800910B1A285528083091006E309000900BCB
:100048002328910B232828285528073091009F3012
:100058009000900B2D28910B2D28552807309100E2
:100068003F309000900B3628910B36280000552819
:100078001208900091011108003A031944285528E4
:100088001008003A03195D28013A03191628033AA3
:1000980003191F28013A03192928073A0319322896
:1000A80055288312861F59285A285C2886135D28EC
:1000B800861708001B21E520831206186428652886
:1000C8007A2873280230960004309500BA309400DC
:1000D800940B6C28950B6C28960B6C2800008312E7
:1000E800061C77287828662807211521962060287D
:1000F8000B2883121A0803198228832886280130BE
:100108009A02952804309A00F120003A031D8D28A0
:100118008E289428013083128D000D0899079528A0
:100128000E21080083121908C220831293001708B1
:10013800031D9F28A028A128AB2803301806031DFB
:10014800A628A728A9280721AB28130813200800E8
:1001580001300B1D00398B1E003900380319B528F2
:10016800B628BA280B11403081007D2083120F0871
:100178008A000E0E8300CE0E4E0E090083129100E7
:10018800640083168818C928CA28C428831211084D
:1001980089003F30900010088316880508148312E0
:1001A800080808004E088A004F088200D620800000
:1001B800840A04084D0603190034CF0A0319CE0A2D
:1001C800DA28831686010614811201158114011498
:1001D80081118B120B118B17080020308312190222
:0E01E8000318F728F9280130FA280030080023
:1002000001308A000408840A8207003420348312F3
:100210009701990198018B120B1108008312990123
:1002200001308C000C089807080083129701970A88
:080230008B16080004340800DD
:02400E00FB3F76
:1042000001000000020000000300030000000100A4
:104210000000020000000400030003000000000092
:104220000100000002000000030003000000020083
:10423000000001000100010001000000000000007A
:0242400000007C
:00000001FF
